:0800930003060C0903090C0629
:100055007FC81200667FC81200667FC81200667FDF
:01006500C8D2
:10006600AD071FED600BE4FEEEC394FA50F20E806E
:01007600F792
:010077002266
:0E00780000007F2B7E067DCBDDFEDEFCDFFA76
:010086002257
:10000300E4FBE4F580EC90009793F5800CECC3944B
:10001300044002E4FC7F021200660BBB02E4120000
:10002300557FC8120066E4FBC374809490501BE4B0
:10003300F580EC90009793F5800CECC39404400298
:10004300E4FC7F021200660B80DE1200557FC802BB
:02005300006645
:0300000002008774
:0C008700787FE4F6D8FD758107020003C5
:00000001FF
